{
    "contractName": "MakItGo",
    "abi": [
        {
            "inputs": [],
            "stateMutability": "nonpayable",
            "type": "constructor"
        },
        {
            "anonymous": false,
            "inputs": [
                {
                    "indexed": true,
                    "internalType": "string",
                    "name": "url",
                    "type": "string"
                },
                {
                    "indexed": true,
                    "internalType": "string",
                    "name": "name",
                    "type": "string"
                }
            ],
            "name": "BusinessCreated",
            "type": "event"
        },
        {
            "anonymous": false,
            "inputs": [
                {
                    "indexed": true,
                    "internalType": "address",
                    "name": "fromOwner",
                    "type": "address"
                },
                {
                    "indexed": true,
                    "internalType": "address",
                    "name": "toOwner",
                    "type": "address"
                }
            ],
            "name": "BusinessTransfer",
            "type": "event"
        },
        {
            "anonymous": false,
            "inputs": [
                {
                    "indexed": true,
                    "internalType": "string",
                    "name": "url",
                    "type": "string"
                },
                {
                    "indexed": false,
                    "internalType": "uint256",
                    "name": "expired",
                    "type": "uint256"
                }
            ],
            "name": "BusinessUpdate",
            "type": "event"
        },
        {
            "anonymous": false,
            "inputs": [
                {
                    "indexed": true,
                    "internalType": "address",
                    "name": "previousOwner",
                    "type": "address"
                },
                {
                    "indexed": true,
                    "internalType": "address",
                    "name": "newOwner",
                    "type": "address"
                }
            ],
            "name": "OwnershipTransferred",
            "type": "event"
        },
        {
            "anonymous": false,
            "inputs": [
                {
                    "indexed": true,
                    "internalType": "bytes32",
                    "name": "role",
                    "type": "bytes32"
                },
                {
                    "indexed": true,
                    "internalType": "bytes32",
                    "name": "previousAdminRole",
                    "type": "bytes32"
                },
                {
                    "indexed": true,
                    "internalType": "bytes32",
                    "name": "newAdminRole",
                    "type": "bytes32"
                }
            ],
            "name": "RoleAdminChanged",
            "type": "event"
        },
        {
            "anonymous": false,
            "inputs": [
                {
                    "indexed": true,
                    "internalType": "bytes32",
                    "name": "role",
                    "type": "bytes32"
                },
                {
                    "indexed": true,
                    "internalType": "address",
                    "name": "account",
                    "type": "address"
                },
                {
                    "indexed": true,
                    "internalType": "address",
                    "name": "sender",
                    "type": "address"
                }
            ],
            "name": "RoleGranted",
            "type": "event"
        },
        {
            "anonymous": false,
            "inputs": [
                {
                    "indexed": true,
                    "internalType": "bytes32",
                    "name": "role",
                    "type": "bytes32"
                },
                {
                    "indexed": true,
                    "internalType": "address",
                    "name": "account",
                    "type": "address"
                },
                {
                    "indexed": true,
                    "internalType": "address",
                    "name": "sender",
                    "type": "address"
                }
            ],
            "name": "RoleRevoked",
            "type": "event"
        },
        {
            "inputs": [],
            "name": "DEFAULT_ADMIN_ROLE",
            "outputs": [
                {
                    "internalType": "bytes32",
                    "name": "",
                    "type": "bytes32"
                }
            ],
            "stateMutability": "view",
            "type": "function"
        },
        {
            "inputs": [
                {
                    "internalType": "string",
                    "name": "url",
                    "type": "string"
                },
                {
                    "internalType": "string",
                    "name": "name",
                    "type": "string"
                }
            ],
            "name": "createBusiness",
            "outputs": [],
            "stateMutability": "nonpayable",
            "type": "function"
        },
        {
            "inputs": [
                {
                    "internalType": "string",
                    "name": "",
                    "type": "string"
                }
            ],
            "name": "datamap",
            "outputs": [
                {
                    "internalType": "address",
                    "name": "businessOwner",
                    "type": "address"
                },
                {
                    "internalType": "string",
                    "name": "name",
                    "type": "string"
                },
                {
                    "internalType": "string",
                    "name": "url",
                    "type": "string"
                },
                {
                    "internalType": "uint64",
                    "name": "expired",
                    "type": "uint64"
                }
            ],
            "stateMutability": "view",
            "type": "function"
        },
        {
            "inputs": [
                {
                    "internalType": "bytes32",
                    "name": "role",
                    "type": "bytes32"
                }
            ],
            "name": "getRoleAdmin",
            "outputs": [
                {
                    "internalType": "bytes32",
                    "name": "",
                    "type": "bytes32"
                }
            ],
            "stateMutability": "view",
            "type": "function"
        },
        {
            "inputs": [
                {
                    "internalType": "bytes32",
                    "name": "role",
                    "type": "bytes32"
                },
                {
                    "internalType": "uint256",
                    "name": "index",
                    "type": "uint256"
                }
            ],
            "name": "getRoleMember",
            "outputs": [
                {
                    "internalType": "address",
                    "name": "",
                    "type": "address"
                }
            ],
            "stateMutability": "view",
            "type": "function"
        },
        {
            "inputs": [
                {
                    "internalType": "bytes32",
                    "name": "role",
                    "type": "bytes32"
                }
            ],
            "name": "getRoleMemberCount",
            "outputs": [
                {
                    "internalType": "uint256",
                    "name": "",
                    "type": "uint256"
                }
            ],
            "stateMutability": "view",
            "type": "function"
        },
        {
            "inputs": [
                {
                    "internalType": "bytes32",
                    "name": "role",
                    "type": "bytes32"
                },
                {
                    "internalType": "address",
                    "name": "account",
                    "type": "address"
                }
            ],
            "name": "grantRole",
            "outputs": [],
            "stateMutability": "nonpayable",
            "type": "function"
        },
        {
            "inputs": [
                {
                    "internalType": "bytes32",
                    "name": "role",
                    "type": "bytes32"
                },
                {
                    "internalType": "address",
                    "name": "account",
                    "type": "address"
                }
            ],
            "name": "hasRole",
            "outputs": [
                {
                    "internalType": "bool",
                    "name": "",
                    "type": "bool"
                }
            ],
            "stateMutability": "view",
            "type": "function"
        },
        {
            "inputs": [],
            "name": "listURLCount",
            "outputs": [
                {
                    "internalType": "uint64",
                    "name": "",
                    "type": "uint64"
                }
            ],
            "stateMutability": "view",
            "type": "function"
        },
        {
            "inputs": [],
            "name": "owner",
            "outputs": [
                {
                    "internalType": "address",
                    "name": "",
                    "type": "address"
                }
            ],
            "stateMutability": "view",
            "type": "function"
        },
        {
            "inputs": [],
            "name": "renounceOwnership",
            "outputs": [],
            "stateMutability": "nonpayable",
            "type": "function"
        },
        {
            "inputs": [
                {
                    "internalType": "bytes32",
                    "name": "role",
                    "type": "bytes32"
                },
                {
                    "internalType": "address",
                    "name": "account",
                    "type": "address"
                }
            ],
            "name": "renounceRole",
            "outputs": [],
            "stateMutability": "nonpayable",
            "type": "function"
        },
        {
            "inputs": [
                {
                    "internalType": "bytes32",
                    "name": "role",
                    "type": "bytes32"
                },
                {
                    "internalType": "address",
                    "name": "account",
                    "type": "address"
                }
            ],
            "name": "revokeRole",
            "outputs": [],
            "stateMutability": "nonpayable",
            "type": "function"
        },
        {
            "inputs": [
                {
                    "internalType": "string",
                    "name": "url",
                    "type": "string"
                },
                {
                    "internalType": "address",
                    "name": "toOwner",
                    "type": "address"
                }
            ],
            "name": "transferBusiness",
            "outputs": [],
            "stateMutability": "nonpayable",
            "type": "function"
        },
        {
            "inputs": [
                {
                    "internalType": "address",
                    "name": "newOwner",
                    "type": "address"
                }
            ],
            "name": "transferOwnership",
            "outputs": [],
            "stateMutability": "nonpayable",
            "type": "function"
        },
        {
            "inputs": [
                {
                    "internalType": "uint256",
                    "name": "",
                    "type": "uint256"
                }
            ],
            "name": "urls",
            "outputs": [
                {
                    "internalType": "string",
                    "name": "",
                    "type": "string"
                }
            ],
            "stateMutability": "view",
            "type": "function"
        },
        {
            "inputs": [
                {
                    "internalType": "string",
                    "name": "url",
                    "type": "string"
                }
            ],
            "name": "weeklyUpdate",
            "outputs": [],
            "stateMutability": "nonpayable",
            "type": "function"
        }
    ],
    "bytecode": "60806040523480156200001157600080fd5b5060006200001e62000088565b600180546001600160a01b0319166001600160a01b038316908117909155604051919250906000907f8be0079c531659141344cd1fd0a4f28419497f9722a3daafe3b4186f6b6457e0908290a3506200008260006200007c6200008c565b6200009b565b620001ab565b3390565b6001546001600160a01b031690565b620000a78282620000ab565b5050565b600082815260208181526040909120620000d09183906200136762000124821b17901c565b15620000a757620000e062000088565b6001600160a01b0316816001600160a01b0316837f2f8788117e7eff1d82e926ec794901d17c78024a50270940304540a733656f0d60405160405180910390a45050565b60006200013b836001600160a01b03841662000144565b90505b92915050565b600062000152838362000193565b6200018a575081546001818101845560008481526020808220909301849055845484825282860190935260409020919091556200013e565b5060006200013e565b60009081526001919091016020526040902054151590565b61181c80620001bb6000396000f3fe608060405234801561001057600080fd5b506004361061010b5760003560e01c80638da5cb5b116100a2578063c609d81611610071578063c609d8161461063d578063ca15c873146106e1578063d547741f146106fe578063f2fde38b1461072a578063faffb97c146107505761010b565b80638da5cb5b146105ae5780639010d07c146105d257806391d14854146105f5578063a217fddf146106355761010b565b806360d41a26116100de57806360d41a26146102c25780636930941214610371578063715018a614610514578063796676be1461051c5761010b565b8063248a9ca3146101105780632f2ff15d1461013f57806333d104721461016d57806336568abe14610296575b600080fd5b61012d6004803603602081101561012657600080fd5b5035610775565b60408051918252519081900360200190f35b61016b6004803603604081101561015557600080fd5b50803590602001356001600160a01b031661078a565b005b61016b6004803603604081101561018357600080fd5b810190602081018135600160201b81111561019d57600080fd5b8201836020820111156101af57600080fd5b803590602001918460018302840111600160201b831117156101d057600080fd5b91908080601f0160208091040260200160405190810160405280939291908181526020018383808284376000920191909152509295949360208101935035915050600160201b81111561022257600080fd5b82018360208201111561023457600080fd5b803590602001918460018302840111600160201b8311171561025557600080fd5b91908080601f0160208091040260200160405190810160405280939291908181526020018383808284376000920191909152509295506107f6945050505050565b61016b600480360360408110156102ac57600080fd5b50803590602001356001600160a01b03166109ff565b61016b600480360360408110156102d857600080fd5b810190602081018135600160201b8111156102f257600080fd5b82018360208201111561030457600080fd5b803590602001918460018302840111600160201b8311171561032557600080fd5b91908080601f016020809104026020016040519081016040528093929190818152602001838380828437600092019190915250929550505090356001600160a01b03169150610a609050565b6104156004803603602081101561038757600080fd5b810190602081018135600160201b8111156103a157600080fd5b8201836020820111156103b357600080fd5b803590602001918460018302840111600160201b831117156103d457600080fd5b91908080601f016020809104026020016040519081016040528093929190818152602001838380828437600092019190915250929550610ce7945050505050565b60405180856001600160a01b0316815260200180602001806020018467ffffffffffffffff168152602001838103835286818151815260200191508051906020019080838360005b8381101561047557818101518382015260200161045d565b50505050905090810190601f1680156104a25780820380516001836020036101000a031916815260200191505b50838103825285518152855160209182019187019080838360005b838110156104d55781810151838201526020016104bd565b50505050905090810190601f1680156105025780820380516001836020036101000a031916815260200191505b50965050505050505060405180910390f35b61016b610e46565b6105396004803603602081101561053257600080fd5b5035610efa565b6040805160208082528351818301528351919283929083019185019080838360005b8381101561057357818101518382015260200161055b565b50505050905090810190601f1680156105a05780820380516001836020036101000a031916815260200191505b509250505060405180910390f35b6105b6610fa3565b604080516001600160a01b039092168252519081900360200190f35b6105b6600480360360408110156105e857600080fd5b5080359060200135610fb2565b6106216004803603604081101561060b57600080fd5b50803590602001356001600160a01b0316610fd3565b604080519115158252519081900360200190f35b61012d610feb565b61016b6004803603602081101561065357600080fd5b810190602081018135600160201b81111561066d57600080fd5b82018360208201111561067f57600080fd5b803590602001918460018302840111600160201b831117156106a057600080fd5b91908080601f016020809104026020016040519081016040528093929190818152602001838380828437600092019190915250929550610ff0945050505050565b61012d600480360360208110156106f757600080fd5b50356111e6565b61016b6004803603604081101561071457600080fd5b50803590602001356001600160a01b03166111fd565b61016b6004803603602081101561074057600080fd5b50356001600160a01b0316611256565b610758611361565b6040805167ffffffffffffffff9092168252519081900360200190f35b60009081526020819052604090206002015490565b6000828152602081905260409020600201546107ad906107a861137c565b610fd3565b6107e85760405162461bcd60e51b815260040180806020018281038252602f8152602001806116e7602f913960400191505060405180910390fd5b6107f28282611380565b5050565b6002826040518082805190602001908083835b602083106108285780518252601f199092019160209182019101610809565b51815160209384036101000a600019018019909216911617905292019485525060405193849003019092206003015467ffffffffffffffff161591506108a99050576040805162461bcd60e51b815260206004820152600f60248201526e1d5c9b081a5cc8185cdcda59db9959608a1b604482015290519081900360640190fd5b6040518060800160405280336001600160a01b031681526020018281526020018381526020014267ffffffffffffffff168152506002836040518082805190602001908083835b6020831061090f5780518252601f1990920191602091820191016108f0565b51815160209384036101000a6000190180199092169116179052920194855250604051938490038101909320845181546001600160a01b0319166001600160a01b03909116178155848401518051919461097194506001860193500190611623565b506040820151805161098d916002840191602090910190611623565b50606091909101516003918201805467ffffffffffffffff191667ffffffffffffffff909216919091179055805460018101825560009190915282516109fa917fc2575a0e9e593c00f959f8c92f12db2869c3395a3b0502d05e2516446f71f85b01906020850190611623565b505050565b610a0761137c565b6001600160a01b0316816001600160a01b031614610a565760405162461bcd60e51b815260040180806020018281038252602f8152602001806117b8602f913960400191505060405180910390fd5b6107f282826113e9565b6002826040518082805190602001908083835b60208310610a925780518252601f199092019160209182019101610a73565b51815160209384036101000a600019018019909216911617905292019485525060405193849003019092206003015467ffffffffffffffff1615159150610b169050576040805162461bcd60e51b81526020600482015260116024820152701d5c9b081a5cc81d5b985cdcda59db9959607a1b604482015290519081900360640190fd5b336001600160a01b03166002836040518082805190602001908083835b60208310610b525780518252601f199092019160209182019101610b33565b51815160209384036101000a60001901801990921691161790529201948552506040519384900301909220546001600160a01b0316929092149150610bca90505760405162461bcd60e51b815260040180806020018281038252602781526020018061173c6027913960400191505060405180910390fd5b60006002836040518082805190602001908083835b60208310610bfe5780518252601f199092019160209182019101610bdf565b51815160209384036101000a600019018019909216911617905292019485525060405193849003018320546001600160a01b0390811694508516928492507f54bdaa308d34406b09b20101de9b6467c26e5901ee017b79c618c70cbe117cf99150600090a3816002846040518082805190602001908083835b60208310610c965780518252601f199092019160209182019101610c77565b51815160209384036101000a6000190180199092169116179052920194855250604051938490030190922080546001600160a01b0319166001600160a01b0394909416939093179092555050505050565b80516020818301810180516002808352938301948301949094209390528254600180850180546040805161010094831615949094026000190190911695909504601f81018590048502830185019095528482526001600160a01b0390921694939092830182828015610d9a5780601f10610d6f57610100808354040283529160200191610d9a565b820191906000526020600020905b815481529060010190602001808311610d7d57829003601f168201915b50505060028085018054604080516020601f6000196101006001871615020190941695909504928301859004850281018501909152818152959695945090925090830182828015610e2c5780601f10610e0157610100808354040283529160200191610e2c565b820191906000526020600020905b815481529060010190602001808311610e0f57829003601f168201915b5050506003909301549192505067ffffffffffffffff1684565b610e4e61137c565b6001546001600160a01b03908116911614610eb0576040805162461bcd60e51b815260206004820181905260248201527f4f776e61626c653a2063616c6c6572206973206e6f7420746865206f776e6572604482015290519081900360640190fd5b6001546040516000916001600160a01b0316907f8be0079c531659141344cd1fd0a4f28419497f9722a3daafe3b4186f6b6457e0908390a3600180546001600160a01b0319169055565b60038181548110610f0a57600080fd5b600091825260209182902001805460408051601f6002600019610100600187161502019094169390930492830185900485028101850190915281815293509091830182828015610f9b5780601f10610f7057610100808354040283529160200191610f9b565b820191906000526020600020905b815481529060010190602001808311610f7e57829003601f168201915b505050505081565b6001546001600160a01b031690565b6000828152602081905260408120610fca9083611452565b90505b92915050565b6000828152602081905260408120610fca908361145e565b600081565b6002816040518082805190602001908083835b602083106110225780518252601f199092019160209182019101611003565b51815160209384036101000a600019018019909216911617905292019485525060405193849003019092206003015467ffffffffffffffff16151591506110a69050576040805162461bcd60e51b81526020600482015260116024820152701d5c9b081a5cc81d5b985cdcda59db9959607a1b604482015290519081900360640190fd5b336001600160a01b03166002826040518082805190602001908083835b602083106110e25780518252601f1990920191602091820191016110c3565b51815160209384036101000a60001901801990921691161790529201948552506040519384900301909220546001600160a01b031692909214915061115a90505760405162461bcd60e51b81526004018080602001828103825260258152602001806117936025913960400191505060405180910390fd5b4262093a80016002826040518082805190602001908083835b602083106111925780518252601f199092019160209182019101611173565b51815160209384036101000a60001901801990921691161790529201948552506040519384900301909220600301805467ffffffffffffffff191667ffffffffffffffff9490941693909317909255505050565b6000818152602081905260408120610fcd90611473565b60008281526020819052604090206002015461121b906107a861137c565b610a565760405162461bcd60e51b81526004018080602001828103825260308152602001806117636030913960400191505060405180910390fd5b61125e61137c565b6001546001600160a01b039081169116146112c0576040805162461bcd60e51b815260206004820181905260248201527f4f776e61626c653a2063616c6c6572206973206e6f7420746865206f776e6572604482015290519081900360640190fd5b6001600160a01b0381166113055760405162461bcd60e51b81526004018080602001828103825260268152602001806117166026913960400191505060405180910390fd5b6001546040516001600160a01b038084169216907f8be0079c531659141344cd1fd0a4f28419497f9722a3daafe3b4186f6b6457e090600090a3600180546001600160a01b0319166001600160a01b0392909216919091179055565b60035490565b6000610fca836001600160a01b03841661147e565b3390565b60008281526020819052604090206113989082611367565b156107f2576113a561137c565b6001600160a01b0316816001600160a01b0316837f2f8788117e7eff1d82e926ec794901d17c78024a50270940304540a733656f0d60405160405180910390a45050565b600082815260208190526040902061140190826114c8565b156107f25761140e61137c565b6001600160a01b0316816001600160a01b0316837ff6391f5c32d9c69d2a47ea670b442974b53935d1edc7fd64eb21e047a839171b60405160405180910390a45050565b6000610fca83836114dd565b6000610fca836001600160a01b038416611541565b6000610fcd82611559565b600061148a8383611541565b6114c057508154600181810184556000848152602080822090930184905584548482528286019093526040902091909155610fcd565b506000610fcd565b6000610fca836001600160a01b03841661155d565b8154600090821061151f5760405162461bcd60e51b81526004018080602001828103825260228152602001806116c56022913960400191505060405180910390fd5b82600001828154811061152e57fe5b9060005260206000200154905092915050565b60009081526001919091016020526040902054151590565b5490565b60008181526001830160205260408120548015611619578354600019808301919081019060009087908390811061159057fe5b90600052602060002001549050808760000184815481106115ad57fe5b6000918252602080832090910192909255828152600189810190925260409020908401905586548790806115dd57fe5b60019003818190600052602060002001600090559055866001016000878152602001908152602001600020600090556001945050505050610fcd565b6000915050610fcd565b828054600181600116156101000203166002900490600052602060002090601f016020900481019282611659576000855561169f565b82601f1061167257805160ff191683800117855561169f565b8280016001018555821561169f579182015b8281111561169f578251825591602001919060010190611684565b506116ab9291506116af565b5090565b5b808211156116ab57600081556001016116b056fe456e756d657261626c655365743a20696e646578206f7574206f6620626f756e6473416363657373436f6e74726f6c3a2073656e646572206d75737420626520616e2061646d696e20746f206772616e744f776e61626c653a206e6577206f776e657220697320746865207a65726f20616464726573737472616e73666572206f6e6c7920616c6c6f77656420666f7220627573696e6573734f776e6572416363657373436f6e74726f6c3a2073656e646572206d75737420626520616e2061646d696e20746f207265766f6b65757064617465206f6e6c7920616c6c6f77656420666f7220627573696e6573734f776e6572416363657373436f6e74726f6c3a2063616e206f6e6c792072656e6f756e636520726f6c657320666f722073656c66a26469706673582212200ea9a604042c8ab800d4c8f0382a41f47c331669dd01ab871db74da956bec40364736f6c63430007040033",
    "sourcePath": "e:/Git/2020-1-CECD1-TemporalVariable-8/solidity/src/makitgo.sol",
    "compiler": {
        "name": "solc",
        "version": "0.7.4+commit.3f05b770"
    },
    "functionHashes": {
        "DEFAULT_ADMIN_ROLE()": "a217fddf",
        "createBusiness(string,string)": "33d10472",
        "datamap(string)": "69309412",
        "getRoleAdmin(bytes32)": "248a9ca3",
        "getRoleMember(bytes32,uint256)": "9010d07c",
        "getRoleMemberCount(bytes32)": "ca15c873",
        "grantRole(bytes32,address)": "2f2ff15d",
        "hasRole(bytes32,address)": "91d14854",
        "listURLCount()": "faffb97c",
        "owner()": "8da5cb5b",
        "renounceOwnership()": "715018a6",
        "renounceRole(bytes32,address)": "36568abe",
        "revokeRole(bytes32,address)": "d547741f",
        "transferBusiness(string,address)": "60d41a26",
        "transferOwnership(address)": "f2fde38b",
        "urls(uint256)": "796676be",
        "weeklyUpdate(string)": "c609d816"
    },
    "gasEstimates": {
        "creation": {
            "codeDepositCost": "1234400",
            "executionCost": "infinite",
            "totalCost": "infinite"
        },
        "external": {
            "DEFAULT_ADMIN_ROLE()": "287",
            "createBusiness(string,string)": "infinite",
            "datamap(string)": "infinite",
            "getRoleAdmin(bytes32)": "1139",
            "getRoleMember(bytes32,uint256)": "infinite",
            "getRoleMemberCount(bytes32)": "infinite",
            "grantRole(bytes32,address)": "infinite",
            "hasRole(bytes32,address)": "infinite",
            "listURLCount()": "1117",
            "owner()": "1060",
            "renounceOwnership()": "24268",
            "renounceRole(bytes32,address)": "infinite",
            "revokeRole(bytes32,address)": "infinite",
            "transferBusiness(string,address)": "infinite",
            "transferOwnership(address)": "infinite",
            "urls(uint256)": "infinite",
            "weeklyUpdate(string)": "infinite"
        }
    }
}